{
  "contractName": "SolnSquareVerifier",
  "abi": [
    {
      "constant": false,
      "inputs": [
        {
          "name": "set",
          "type": "bool"
        }
      ],
      "name": "setter",
      "outputs": [],
      "payable": false,
      "stateMutability": "nonpayable",
      "type": "function"
    },
    {
      "constant": true,
      "inputs": [
        {
          "name": "interfaceId",
          "type": "bytes4"
        }
      ],
      "name": "supportsInterface",
      "outputs": [
        {
          "name": "",
          "type": "bool"
        }
      ],
      "payable": false,
      "stateMutability": "view",
      "type": "function"
    },
    {
      "constant": true,
      "inputs": [],
      "name": "name",
      "outputs": [
        {
          "name": "",
          "type": "string"
        }
      ],
      "payable": false,
      "stateMutability": "view",
      "type": "function"
    },
    {
      "constant": true,
      "inputs": [
        {
          "name": "tokenId",
          "type": "uint256"
        }
      ],
      "name": "getApproved",
      "outputs": [
        {
          "name": "",
          "type": "address"
        }
      ],
      "payable": false,
      "stateMutability": "view",
      "type": "function"
    },
    {
      "constant": false,
      "inputs": [
        {
          "name": "to",
          "type": "address"
        },
        {
          "name": "tokenId",
          "type": "uint256"
        }
      ],
      "name": "approve",
      "outputs": [],
      "payable": false,
      "stateMutability": "nonpayable",
      "type": "function"
    },
    {
      "constant": true,
      "inputs": [],
      "name": "totalSupply",
      "outputs": [
        {
          "name": "",
          "type": "uint256"
        }
      ],
      "payable": false,
      "stateMutability": "view",
      "type": "function"
    },
    {
      "constant": false,
      "inputs": [
        {
          "name": "from",
          "type": "address"
        },
        {
          "name": "to",
          "type": "address"
        },
        {
          "name": "tokenId",
          "type": "uint256"
        }
      ],
      "name": "transferFrom",
      "outputs": [],
      "payable": false,
      "stateMutability": "nonpayable",
      "type": "function"
    },
    {
      "constant": false,
      "inputs": [
        {
          "name": "_myid",
          "type": "bytes32"
        },
        {
          "name": "_result",
          "type": "string"
        }
      ],
      "name": "__callback",
      "outputs": [],
      "payable": false,
      "stateMutability": "nonpayable",
      "type": "function"
    },
    {
      "constant": true,
      "inputs": [
        {
          "name": "owner",
          "type": "address"
        },
        {
          "name": "index",
          "type": "uint256"
        }
      ],
      "name": "tokenOfOwnerByIndex",
      "outputs": [
        {
          "name": "",
          "type": "uint256"
        }
      ],
      "payable": false,
      "stateMutability": "view",
      "type": "function"
    },
    {
      "constant": false,
      "inputs": [
        {
          "name": "_myid",
          "type": "bytes32"
        },
        {
          "name": "_result",
          "type": "string"
        },
        {
          "name": "_proof",
          "type": "bytes"
        }
      ],
      "name": "__callback",
      "outputs": [],
      "payable": false,
      "stateMutability": "nonpayable",
      "type": "function"
    },
    {
      "constant": false,
      "inputs": [
        {
          "name": "to",
          "type": "address"
        },
        {
          "name": "tokenId",
          "type": "uint256"
        }
      ],
      "name": "mint",
      "outputs": [
        {
          "name": "",
          "type": "bool"
        }
      ],
      "payable": false,
      "stateMutability": "nonpayable",
      "type": "function"
    },
    {
      "constant": false,
      "inputs": [
        {
          "name": "from",
          "type": "address"
        },
        {
          "name": "to",
          "type": "address"
        },
        {
          "name": "tokenId",
          "type": "uint256"
        }
      ],
      "name": "safeTransferFrom",
      "outputs": [],
      "payable": false,
      "stateMutability": "nonpayable",
      "type": "function"
    },
    {
      "constant": true,
      "inputs": [
        {
          "name": "index",
          "type": "uint256"
        }
      ],
      "name": "tokenByIndex",
      "outputs": [
        {
          "name": "",
          "type": "uint256"
        }
      ],
      "payable": false,
      "stateMutability": "view",
      "type": "function"
    },
    {
      "constant": true,
      "inputs": [
        {
          "name": "tokenId",
          "type": "uint256"
        }
      ],
      "name": "ownerOf",
      "outputs": [
        {
          "name": "",
          "type": "address"
        }
      ],
      "payable": false,
      "stateMutability": "view",
      "type": "function"
    },
    {
      "constant": true,
      "inputs": [
        {
          "name": "owner",
          "type": "address"
        }
      ],
      "name": "balanceOf",
      "outputs": [
        {
          "name": "",
          "type": "uint256"
        }
      ],
      "payable": false,
      "stateMutability": "view",
      "type": "function"
    },
    {
      "constant": true,
      "inputs": [],
      "name": "symbol",
      "outputs": [
        {
          "name": "",
          "type": "string"
        }
      ],
      "payable": false,
      "stateMutability": "view",
      "type": "function"
    },
    {
      "constant": false,
      "inputs": [
        {
          "name": "to",
          "type": "address"
        },
        {
          "name": "approved",
          "type": "bool"
        }
      ],
      "name": "setApprovalForAll",
      "outputs": [],
      "payable": false,
      "stateMutability": "nonpayable",
      "type": "function"
    },
    {
      "constant": false,
      "inputs": [
        {
          "name": "from",
          "type": "address"
        },
        {
          "name": "to",
          "type": "address"
        },
        {
          "name": "tokenId",
          "type": "uint256"
        },
        {
          "name": "_data",
          "type": "bytes"
        }
      ],
      "name": "safeTransferFrom",
      "outputs": [],
      "payable": false,
      "stateMutability": "nonpayable",
      "type": "function"
    },
    {
      "constant": true,
      "inputs": [
        {
          "name": "tokenId",
          "type": "uint256"
        }
      ],
      "name": "tokenURI",
      "outputs": [
        {
          "name": "",
          "type": "string"
        }
      ],
      "payable": false,
      "stateMutability": "view",
      "type": "function"
    },
    {
      "constant": true,
      "inputs": [],
      "name": "baseTokenURI",
      "outputs": [
        {
          "name": "",
          "type": "string"
        }
      ],
      "payable": false,
      "stateMutability": "view",
      "type": "function"
    },
    {
      "constant": true,
      "inputs": [
        {
          "name": "owner",
          "type": "address"
        },
        {
          "name": "operator",
          "type": "address"
        }
      ],
      "name": "isApprovedForAll",
      "outputs": [
        {
          "name": "",
          "type": "bool"
        }
      ],
      "payable": false,
      "stateMutability": "view",
      "type": "function"
    },
    {
      "constant": false,
      "inputs": [
        {
          "name": "newOwner",
          "type": "address"
        }
      ],
      "name": "transferOwnership",
      "outputs": [],
      "payable": false,
      "stateMutability": "nonpayable",
      "type": "function"
    },
    {
      "inputs": [
        {
          "name": "name",
          "type": "string"
        },
        {
          "name": "symbol",
          "type": "string"
        }
      ],
      "payable": false,
      "stateMutability": "nonpayable",
      "type": "constructor"
    },
    {
      "anonymous": false,
      "inputs": [
        {
          "indexed": false,
          "name": "index",
          "type": "uint256"
        },
        {
          "indexed": false,
          "name": "Address",
          "type": "address"
        }
      ],
      "name": "SolutionAdded",
      "type": "event"
    },
    {
      "anonymous": false,
      "inputs": [
        {
          "indexed": false,
          "name": "index",
          "type": "uint256"
        },
        {
          "indexed": false,
          "name": "Address",
          "type": "address"
        }
      ],
      "name": "TokenMint",
      "type": "event"
    },
    {
      "anonymous": false,
      "inputs": [
        {
          "indexed": true,
          "name": "from",
          "type": "address"
        },
        {
          "indexed": true,
          "name": "to",
          "type": "address"
        },
        {
          "indexed": true,
          "name": "tokenId",
          "type": "uint256"
        }
      ],
      "name": "Transfer",
      "type": "event"
    },
    {
      "anonymous": false,
      "inputs": [
        {
          "indexed": true,
          "name": "owner",
          "type": "address"
        },
        {
          "indexed": true,
          "name": "approved",
          "type": "address"
        },
        {
          "indexed": true,
          "name": "tokenId",
          "type": "uint256"
        }
      ],
      "name": "Approval",
      "type": "event"
    },
    {
      "anonymous": false,
      "inputs": [
        {
          "indexed": true,
          "name": "owner",
          "type": "address"
        },
        {
          "indexed": true,
          "name": "operator",
          "type": "address"
        },
        {
          "indexed": false,
          "name": "approved",
          "type": "bool"
        }
      ],
      "name": "ApprovalForAll",
      "type": "event"
    },
    {
      "anonymous": false,
      "inputs": [
        {
          "indexed": false,
          "name": "account",
          "type": "address"
        }
      ],
      "name": "Paused",
      "type": "event"
    },
    {
      "anonymous": false,
      "inputs": [
        {
          "indexed": false,
          "name": "account",
          "type": "address"
        }
      ],
      "name": "UnPaused",
      "type": "event"
    },
    {
      "anonymous": false,
      "inputs": [
        {
          "indexed": false,
          "name": "oldOwner",
          "type": "address"
        },
        {
          "indexed": false,
          "name": "newOwner",
          "type": "address"
        }
      ],
      "name": "OwnershipTransfered",
      "type": "event"
    },
    {
      "constant": false,
      "inputs": [
        {
          "name": "index",
          "type": "uint256"
        },
        {
          "name": "Address",
          "type": "address"
        }
      ],
      "name": "addSolutions",
      "outputs": [],
      "payable": false,
      "stateMutability": "nonpayable",
      "type": "function"
    },
    {
      "constant": false,
      "inputs": [
        {
          "name": "a",
          "type": "uint256[2]"
        },
        {
          "name": "b",
          "type": "uint256[2][2]"
        },
        {
          "name": "c",
          "type": "uint256[2]"
        },
        {
          "name": "inputs",
          "type": "uint256[2]"
        },
        {
          "name": "index",
          "type": "uint256"
        },
        {
          "name": "Address",
          "type": "address"
        }
      ],
      "name": "mintNFT",
      "outputs": [],
      "payable": false,
      "stateMutability": "nonpayable",
      "type": "function"
    }
  ],
  "bytecode": "0x60806040523480156200001157600080fd5b506040516200508e3803806200508e833981018060405260408110156200003757600080fd5b8101908080516401000000008111156200005057600080fd5b828101905060208101848111156200006757600080fd5b81518560018202830111640100000000821117156200008557600080fd5b50509291906020018051640100000000811115620000a257600080fd5b82810190506020810184811115620000b957600080fd5b8151856001820283011164010000000082111715620000d757600080fd5b505092919050505081818181606060405190810160405280603f81526020016200504f603f9139336000806101000a81548173ffffffffffffffffffffffffffffffffffffffff021916908373ffffffffffffffffffffffffffffffffffffffff1602179055507f0d18b5fd22306e373229b9439188228edca81207d1667f604daf6cef8aa3ee67600033604051808373ffffffffffffffffffffffffffffffffffffffff1673ffffffffffffffffffffffffffffffffffffffff1681526020018273ffffffffffffffffffffffffffffffffffffffff1673ffffffffffffffffffffffffffffffffffffffff1681526020019250505060405180910390a160008060146101000a81548160ff0219169083151502179055506200022d6301ffc9a77c010000000000000000000000000000000000000000000000000000000002620003a4640100000000026401000000009004565b6200026a6380ac58cd7c010000000000000000000000000000000000000000000000000000000002620003a4640100000000026401000000009004565b620002a763780e9d637c010000000000000000000000000000000000000000000000000000000002620003a4640100000000026401000000009004565b82600f9080519060200190620002bf92919062000462565b508160109080519060200190620002d892919062000462565b508060119080519060200190620002f192919062000462565b506200032f635b5e139f7c010000000000000000000000000000000000000000000000000000000002620003a4640100000000026401000000009004565b50505050506200033e620004e9565b604051809103906000f0801580156200035b573d6000803e3d6000fd5b50601360006101000a81548173ffffffffffffffffffffffffffffffffffffffff021916908373ffffffffffffffffffffffffffffffffffffffff160217905550505062000522565b63ffffffff7c010000000000000000000000000000000000000000000000000000000002817bffffffffffffffffffffffffffffffffffffffffffffffffffffffff191614151515620003f657600080fd5b6001806000837bffffffffffffffffffffffffffffffffffffffffffffffffffffffff19167bffffffffffffffffffffffffffffffffffffffffffffffffffffffff1916815260200190815260200160002060006101000a81548160ff02191690831515021790555050565b828054600181600116156101000203166002900490600052602060002090601f016020900481019282601f10620004a557805160ff1916838001178555620004d6565b82800160010185558215620004d6579182015b82811115620004d5578251825591602001919060010190620004b8565b5b509050620004e59190620004fa565b5090565b6040516111a08062003eaf83390190565b6200051f91905b808211156200051b57600081600090555060010162000501565b5090565b90565b61397d80620005326000396000f3fe608060405234801561001057600080fd5b5060043610610175576000357c01000000000000000000000000000000000000000000000000000000009004806342842e0e116100e0578063b88d4fde11610099578063b88d4fde14610983578063c87b56dd14610a88578063d2120c5014610b2f578063d547cfb714610b7d578063e985e9c514610c00578063f2fde38b14610c7c57610175565b806342842e0e1461073a5780634f6ccce7146107a85780636352211e146107ea57806370a082311461085857806395d89b41146108b0578063a22cb4651461093357610175565b806323b872dd1161013257806323b872dd1461036c57806327dc297e146103da5780632bc45c721461049f5780632f745c591461051657806338bbfa501461057857806340c10f19146106d457610175565b80630159ead91461017a57806301ffc9a7146101aa57806306fdde031461020f578063081812fc14610292578063095ea7b31461030057806318160ddd1461034e575b600080fd5b6101a86004803603602081101561019057600080fd5b81019080803515159060200190929190505050610cc0565b005b6101f5600480360360208110156101c057600080fd5b8101908080357bffffffffffffffffffffffffffffffffffffffffffffffffffffffff19169060200190929190505050610e94565b604051808215151515815260200191505060405180910390f35b610217610efc565b6040518080602001828103825283818151815260200191508051906020019080838360005b8381101561025757808201518184015260208101905061023c565b50505050905090810190601f1680156102845780820380516001836020036101000a031916815260200191505b509250505060405180910390f35b6102be600480360360208110156102a857600080fd5b8101908080359060200190929190505050610f9e565b604051808273ffffffffffffffffffffffffffffffffffffffff1673ffffffffffffffffffffffffffffffffffffffff16815260200191505060405180910390f35b61034c6004803603604081101561031657600080fd5b81019080803573ffffffffffffffffffffffffffffffffffffffff16906020019092919080359060200190929190505050610fdb565b005b610356611260565b6040518082815260200191505060405180910390f35b6103d86004803603606081101561038257600080fd5b81019080803573ffffffffffffffffffffffffffffffffffffffff169060200190929190803573ffffffffffffffffffffffffffffffffffffffff1690602001909291908035906020019092919050505061126d565b005b61049d600480360360408110156103f057600080fd5b81019080803590602001909291908035906020019064010000000081111561041757600080fd5b82018360208201111561042957600080fd5b8035906020019184600183028401116401000000008311171561044b57600080fd5b91908080601f016020809104026020016040519081016040528093929190818152602001838380828437600081840152601f19601f820116905080830192505050505050509192919290505050611292565b005b61051460048036036101808110156104b657600080fd5b810190808060400190919291929080608001909192919290806040019091929192908060400190919291929080359060200190929190803573ffffffffffffffffffffffffffffffffffffffff1690602001909291905050506112d5565b005b6105626004803603604081101561052c57600080fd5b81019080803573ffffffffffffffffffffffffffffffffffffffff1690602001909291908035906020019092919050505061171f565b6040518082815260200191505060405180910390f35b6106d26004803603606081101561058e57600080fd5b8101908080359060200190929190803590602001906401000000008111156105b557600080fd5b8201836020820111156105c757600080fd5b803590602001918460018302840111640100000000831117156105e957600080fd5b91908080601f016020809104026020016040519081016040528093929190818152602001838380828437600081840152601f19601f8201169050808301925050505050505091929192908035906020019064010000000081111561064c57600080fd5b82018360208201111561065e57600080fd5b8035906020019184600183028401116401000000008311171561068057600080fd5b91908080601f016020809104026020016040519081016040528093929190818152602001838380828437600081840152601f19601f820116905080830192505050505050509192919290505050611796565b005b610720600480360360408110156106ea57600080fd5b81019080803573ffffffffffffffffffffffffffffffffffffffff1690602001909291908035906020019092919050505061179b565b604051808215151515815260200191505060405180910390f35b6107a66004803603606081101561075057600080fd5b81019080803573ffffffffffffffffffffffffffffffffffffffff169060200190929190803573ffffffffffffffffffffffffffffffffffffffff16906020019092919080359060200190929190505050611909565b005b6107d4600480360360208110156107be57600080fd5b810190808035906020019092919050505061192a565b6040518082815260200191505060405180910390f35b6108166004803603602081101561080057600080fd5b8101908080359060200190929190505050611962565b604051808273ffffffffffffffffffffffffffffffffffffffff1673ffffffffffffffffffffffffffffffffffffffff16815260200191505060405180910390f35b61089a6004803603602081101561086e57600080fd5b81019080803573ffffffffffffffffffffffffffffffffffffffff16906020019092919050505061199f565b6040518082815260200191505060405180910390f35b6108b86119ef565b6040518080602001828103825283818151815260200191508051906020019080838360005b838110156108f85780820151818401526020810190506108dd565b50505050905090810190601f1680156109255780820380516001836020036101000a031916815260200191505b509250505060405180910390f35b6109816004803603604081101561094957600080fd5b81019080803573ffffffffffffffffffffffffffffffffffffffff169060200190929190803515159060200190929190505050611a91565b005b610a866004803603608081101561099957600080fd5b81019080803573ffffffffffffffffffffffffffffffffffffffff169060200190929190803573ffffffffffffffffffffffffffffffffffffffff1690602001909291908035906020019092919080359060200190640100000000811115610a0057600080fd5b820183602082011115610a1257600080fd5b80359060200191846001830284011164010000000083111715610a3457600080fd5b91908080601f016020809104026020016040519081016040528093929190818152602001838380828437600081840152601f19601f820116905080830192505050505050509192919290505050611bcd565b005b610ab460048036036020811015610a9e57600080fd5b8101908080359060200190929190505050611bf5565b6040518080602001828103825283818151815260200191508051906020019080838360005b83811015610af4578082015181840152602081019050610ad9565b50505050905090810190601f168015610b215780820380516001836020036101000a031916815260200191505b509250505060405180910390f35b610b7b60048036036040811015610b4557600080fd5b8101908080359060200190929190803573ffffffffffffffffffffffffffffffffffffffff169060200190929190505050611cbe565b005b610b85612009565b6040518080602001828103825283818151815260200191508051906020019080838360005b83811015610bc5578082015181840152602081019050610baa565b50505050905090810190601f168015610bf25780820380516001836020036101000a031916815260200191505b509250505060405180910390f35b610c6260048036036040811015610c1657600080fd5b81019080803573ffffffffffffffffffffffffffffffffffffffff169060200190929190803573ffffffffffffffffffffffffffffffffffffffff1690602001909291905050506120ab565b604051808215151515815260200191505060405180910390f35b610cbe60048036036020811015610c9257600080fd5b81019080803573ffffffffffffffffffffffffffffffffffffffff16906020019092919050505061213f565b005b6000809054906101000a900473ffffffffffffffffffffffffffffffffffffffff1673ffffffffffffffffffffffffffffffffffffffff163373ffffffffffffffffffffffffffffffffffffffff16141515610d84576040517f08c379a000000000000000000000000000000000000000000000000000000000815260040180806020018281038252601c8152602001807f43616c6c6572206973206e6f7420636f6e7472616374206f776e65720000000081525060200191505060405180910390fd5b80600060146101000a81548160ff021916908315150217905550600060149054906101000a900460ff1615610e17577f62e78cea01bee320cd4e420270b5ea74000d11b0c9f74754ebdbfc544b05a25833604051808273ffffffffffffffffffffffffffffffffffffffff1673ffffffffffffffffffffffffffffffffffffffff16815260200191505060405180910390a15b600060149054906101000a900460ff161515610e91577fff2b959f2bcdb44c7ecb4b16dae055431019d7350607125cfc2b74a06632c90e33604051808273ffffffffffffffffffffffffffffffffffffffff1673ffffffffffffffffffffffffffffffffffffffff16815260200191505060405180910390a15b50565b600060016000837bffffffffffffffffffffffffffffffffffffffffffffffffffffffff19167bffffffffffffffffffffffffffffffffffffffffffffffffffffffff1916815260200190815260200160002060009054906101000a900460ff169050919050565b6060600f8054600181600116156101000203166002900480601f016020809104026020016040519081016040528092919081815260200182805460018160011615610100020316600290048015610f945780601f10610f6957610100808354040283529160200191610f94565b820191906000526020600020905b815481529060010190602001808311610f7757829003601f168201915b5050505050905090565b60006003600083815260200190815260200160002060009054906101000a900473ffffffffffffffffffffffffffffffffffffffff169050919050565b6002600082815260200190815260200160002060009054906101000a900473ffffffffffffffffffffffffffffffffffffffff1673ffffffffffffffffffffffffffffffffffffffff168273ffffffffffffffffffffffffffffffffffffffff1614151515611095576040517f08c379a000000000000000000000000000000000000000000000000000000000815260040180806020018281038252602a815260200180613907602a913960400191505060405180910390fd5b6002600082815260200190815260200160002060009054906101000a900473ffffffffffffffffffffffffffffffffffffffff1673ffffffffffffffffffffffffffffffffffffffff163373ffffffffffffffffffffffffffffffffffffffff16148061113b575061113a6002600083815260200190815260200160002060009054906101000a900473ffffffffffffffffffffffffffffffffffffffff16336120ab565b5b15156111af576040517f08c379a000000000000000000000000000000000000000000000000000000000815260040180806020018281038252601b8152602001807f436f6e7472616374204f776e657273686970207265717569726564000000000081525060200191505060405180910390fd5b816003600083815260200190815260200160002060006101000a81548173ffffffffffffffffffffffffffffffffffffffff021916908373ffffffffffffffffffffffffffffffffffffffff160217905550808273ffffffffffffffffffffffffffffffffffffffff163373ffffffffffffffffffffffffffffffffffffffff167f8c5be1e5ebec7d5bd14f71427d1e84f3dd0314c0f7b2291e5b200ac8c7c3b92560405160405180910390a45050565b6000600880549050905090565b61127733826123a3565b151561128257600080fd5b61128d838383612438565b505050565b6112d1828260006040519080825280601f01601f1916602001820160405280156112cb5781602001600182028038833980820191505090505b50611796565b5050565b818160008282604051602001808381526020018273ffffffffffffffffffffffffffffffffffffffff1673ffffffffffffffffffffffffffffffffffffffff166c0100000000000000000000000002815260140192505050604051602081830303815290604052805190602001209050600073ffffffffffffffffffffffffffffffffffffffff166015600083815260200190815260200160002060010160009054906101000a900473ffffffffffffffffffffffffffffffffffffffff1673ffffffffffffffffffffffffffffffffffffffff1614151561141f576040517f08c379a00000000000000000000000000000000000000000000000000000000081526004018080602001828103825260178152602001807f536f6c7574696f6e20616c72656164792065786973747300000000000000000081525060200191505060405180910390fd5b601360009054906101000a900473ffffffffffffffffffffffffffffffffffffffff1673ffffffffffffffffffffffffffffffffffffffff1663621e9ec08a8a8a8a6040518563ffffffff167c01000000000000000000000000000000000000000000000000000000000281526004018085600260200280828437600081840152601f19601f82011690508083019250505084600260400280828437600081840152601f19601f82011690508083019250505083600260200280828437600081840152601f19601f82011690508083019250505082600260200280828437600081840152601f19601f820116905080830192505050945050505050602060405180830381600087803b15801561153457600080fd5b505af1158015611548573d6000803e3d6000fd5b505050506040513d602081101561155e57600080fd5b810190808051906020019092919050505015156115e3576040517f08c379a00000000000000000000000000000000000000000000000000000000081526004018080602001828103825260188152602001807f536f6c7574696f6e206973206e6f74207665726966696564000000000000000081525060200191505060405180910390fd5b3073ffffffffffffffffffffffffffffffffffffffff1663d2120c5086866040518363ffffffff167c0100000000000000000000000000000000000000000000000000000000028152600401808381526020018273ffffffffffffffffffffffffffffffffffffffff1673ffffffffffffffffffffffffffffffffffffffff16815260200192505050600060405180830381600087803b15801561168657600080fd5b505af115801561169a573d6000803e3d6000fd5b505050506116a8848661179b565b507fcae919fa60d0c9867c5b3e0a9529934bca78c09d353736e3327f74837594adc58585604051808381526020018273ffffffffffffffffffffffffffffffffffffffff1673ffffffffffffffffffffffffffffffffffffffff1681526020019250505060405180910390a1505050505050505050565b600061172a8361199f565b8210151561173757600080fd5b600660008473ffffffffffffffffffffffffffffffffffffffff1673ffffffffffffffffffffffffffffffffffffffff1681526020019081526020016000208281548110151561178357fe5b9060005260206000200154905092915050565b505050565b60008060009054906101000a900473ffffffffffffffffffffffffffffffffffffffff1673ffffffffffffffffffffffffffffffffffffffff163373ffffffffffffffffffffffffffffffffffffffff16141515611861576040517f08c379a000000000000000000000000000000000000000000000000000000000815260040180806020018281038252601c8152602001807f43616c6c6572206973206e6f7420636f6e7472616374206f776e65720000000081525060200191505060405180910390fd5b60001515600060149054906101000a900460ff1615151415156118ec576040517f08c379a000000000000000000000000000000000000000000000000000000000815260040180806020018281038252600f8152602001807f436f6e747261637420706175736564000000000000000000000000000000000081525060200191505060405180910390fd5b6118f6838361245c565b6118ff8261247d565b6001905092915050565b6119258383836020604051908101604052806000815250611bcd565b505050565b6000611934611260565b8210151561194157600080fd5b60088281548110151561195057fe5b90600052602060002001549050919050565b60006002600083815260200190815260200160002060009054906101000a900473ffffffffffffffffffffffffffffffffffffffff169050919050565b60006119e8600460008473ffffffffffffffffffffffffffffffffffffffff1673ffffffffffffffffffffffffffffffffffffffff1681526020019081526020016000206125d0565b9050919050565b606060108054600181600116156101000203166002900480601f016020809104026020016040519081016040528092919081815260200182805460018160011615610100020316600290048015611a875780601f10611a5c57610100808354040283529160200191611a87565b820191906000526020600020905b815481529060010190602001808311611a6a57829003601f168201915b5050505050905090565b3373ffffffffffffffffffffffffffffffffffffffff168273ffffffffffffffffffffffffffffffffffffffff1614151515611acc57600080fd5b80600560003373ffffffffffffffffffffffffffffffffffffffff1673ffffffffffffffffffffffffffffffffffffffff16815260200190815260200160002060008473ffffffffffffffffffffffffffffffffffffffff1673ffffffffffffffffffffffffffffffffffffffff16815260200190815260200160002060006101000a81548160ff0219169083151502179055508173ffffffffffffffffffffffffffffffffffffffff163373ffffffffffffffffffffffffffffffffffffffff167f17307eab39ab6107e8899845ad3d59bd9653f200f220920489ca2b5937696c3183604051808215151515815260200191505060405180910390a35050565b611bd884848461126d565b611be4848484846125de565b1515611bef57600080fd5b50505050565b6060611c0082612801565b1515611c0b57600080fd5b601260008381526020019081526020016000208054600181600116156101000203166002900480601f016020809104026020016040519081016040528092919081815260200182805460018160011615610100020316600290048015611cb25780601f10611c8757610100808354040283529160200191611cb2565b820191906000526020600020905b815481529060010190602001808311611c9557829003601f168201915b50505050509050919050565b818160008282604051602001808381526020018273ffffffffffffffffffffffffffffffffffffffff1673ffffffffffffffffffffffffffffffffffffffff166c0100000000000000000000000002815260140192505050604051602081830303815290604052805190602001209050600073ffffffffffffffffffffffffffffffffffffffff166015600083815260200190815260200160002060010160009054906101000a900473ffffffffffffffffffffffffffffffffffffffff1673ffffffffffffffffffffffffffffffffffffffff16141515611e08576040517f08c379a00000000000000000000000000000000000000000000000000000000081526004018080602001828103825260178152602001807f536f6c7574696f6e20616c72656164792065786973747300000000000000000081525060200191505060405180910390fd5b611e10613805565b60408051908101604052808781526020018673ffffffffffffffffffffffffffffffffffffffff16815250905060008686604051602001808381526020018273ffffffffffffffffffffffffffffffffffffffff1673ffffffffffffffffffffffffffffffffffffffff166c010000000000000000000000000281526014019250505060405160208183030381529060405280519060200120905081601560008381526020019081526020016000206000820151816000015560208201518160010160006101000a81548173ffffffffffffffffffffffffffffffffffffffff021916908373ffffffffffffffffffffffffffffffffffffffff160217905550905050601482908060018154018082558091505090600182039060005260206000209060020201600090919290919091506000820151816000015560208201518160010160006101000a81548173ffffffffffffffffffffffffffffffffffffffff021916908373ffffffffffffffffffffffffffffffffffffffff1602179055505050507f078793128cefb19aac38a33f9e5df39f67716907f6d747e8065545699e0b2b8d8787604051808381526020018273ffffffffffffffffffffffffffffffffffffffff1673ffffffffffffffffffffffffffffffffffffffff1681526020019250505060405180910390a150505050505050565b606060118054600181600116156101000203166002900480601f0160208091040260200160405190810160405280929190818152602001828054600181600116156101000203166002900480156120a15780601f10612076576101008083540402835291602001916120a1565b820191906000526020600020905b81548152906001019060200180831161208457829003601f168201915b5050505050905090565b6000600560008473ffffffffffffffffffffffffffffffffffffffff1673ffffffffffffffffffffffffffffffffffffffff16815260200190815260200160002060008373ffffffffffffffffffffffffffffffffffffffff1673ffffffffffffffffffffffffffffffffffffffff16815260200190815260200160002060009054906101000a900460ff16905092915050565b6000809054906101000a900473ffffffffffffffffffffffffffffffffffffffff1673ffffffffffffffffffffffffffffffffffffffff163373ffffffffffffffffffffffffffffffffffffffff16141515612203576040517f08c379a000000000000000000000000000000000000000000000000000000000815260040180806020018281038252601c8152602001807f43616c6c6572206973206e6f7420636f6e7472616374206f776e65720000000081525060200191505060405180910390fd5b600073ffffffffffffffffffffffffffffffffffffffff163373ffffffffffffffffffffffffffffffffffffffff16141515156122a8576040517f08c379a00000000000000000000000000000000000000000000000000000000081526004018080602001828103825260118152602001807f41646472657373206e6f742076616c696400000000000000000000000000000081525060200191505060405180910390fd5b806000806101000a81548173ffffffffffffffffffffffffffffffffffffffff021916908373ffffffffffffffffffffffffffffffffffffffff1602179055507f0d18b5fd22306e373229b9439188228edca81207d1667f604daf6cef8aa3ee676000809054906101000a900473ffffffffffffffffffffffffffffffffffffffff1682604051808373ffffffffffffffffffffffffffffffffffffffff1673ffffffffffffffffffffffffffffffffffffffff1681526020018273ffffffffffffffffffffffffffffffffffffffff1673ffffffffffffffffffffffffffffffffffffffff1681526020019250505060405180910390a150565b6000806123af83611962565b90508073ffffffffffffffffffffffffffffffffffffffff168473ffffffffffffffffffffffffffffffffffffffff16148061241e57508373ffffffffffffffffffffffffffffffffffffffff1661240684610f9e565b73ffffffffffffffffffffffffffffffffffffffff16145b8061242f575061242e81856120ab565b5b91505092915050565b612443838383612873565b61244d8382612b26565b6124578282612cca565b505050565b6124668282612d91565b6124708282612cca565b61247981612fad565b5050565b61248681612801565b15156124fa576040517f08c379a00000000000000000000000000000000000000000000000000000000081526004018080602001828103825260148152602001807f746f6b656e20646f6573206e6f7420657869737400000000000000000000000081525060200191505060405180910390fd5b6125a660118054600181600116156101000203166002900480601f0160208091040260200160405190810160405280929190818152602001828054600181600116156101000203166002900480156125935780601f1061256857610100808354040283529160200191612593565b820191906000526020600020905b81548152906001019060200180831161257657829003601f168201915b50505050506125a183612ff9565b613152565b6012600083815260200190815260200160002090805190602001906125cc929190613835565b5050565b600081600001549050919050565b60006125ff8473ffffffffffffffffffffffffffffffffffffffff16613199565b151561260e57600190506127f9565b60008473ffffffffffffffffffffffffffffffffffffffff1663150b7a02338887876040518563ffffffff167c0100000000000000000000000000000000000000000000000000000000028152600401808573ffffffffffffffffffffffffffffffffffffffff1673ffffffffffffffffffffffffffffffffffffffff1681526020018473ffffffffffffffffffffffffffffffffffffffff1673ffffffffffffffffffffffffffffffffffffffff16815260200183815260200180602001828103825283818151815260200191508051906020019080838360005b838110156127055780820151818401526020810190506126ea565b50505050905090810190601f1680156127325780820380516001836020036101000a031916815260200191505b5095505050505050602060405180830381600087803b15801561275457600080fd5b505af1158015612768573d6000803e3d6000fd5b505050506040513d602081101561277e57600080fd5b8101908080519060200190929190505050905063150b7a027c0100000000000000000000000000000000000000000000000000000000027bffffffffffffffffffffffffffffffffffffffffffffffffffffffff1916817bffffffffffffffffffffffffffffffffffffffffffffffffffffffff1916149150505b949350505050565b6000806002600084815260200190815260200160002060009054906101000a900473ffffffffffffffffffffffffffffffffffffffff169050600073ffffffffffffffffffffffffffffffffffffffff168173ffffffffffffffffffffffffffffffffffffffff161415915050919050565b61287c81611962565b73ffffffffffffffffffffffffffffffffffffffff168373ffffffffffffffffffffffffffffffffffffffff16141515612901576040517f08c379a00000000000000000000000000000000000000000000000000000000081526004018080602001828103825260218152602001806139316021913960400191505060405180910390fd5b8173ffffffffffffffffffffffffffffffffffffffff168273ffffffffffffffffffffffffffffffffffffffff161480156129695750600073ffffffffffffffffffffffffffffffffffffffff168273ffffffffffffffffffffffffffffffffffffffff1614155b15156129dd576040517f08c379a000000000000000000000000000000000000000000000000000000000815260040180806020018281038252600f8152602001807f496e76616c69642061646472657373000000000000000000000000000000000081525060200191505060405180910390fd5b6129e6816131e5565b612a2d600460008573ffffffffffffffffffffffffffffffffffffffff1673ffffffffffffffffffffffffffffffffffffffff1681526020019081526020016000206132a5565b816002600083815260200190815260200160002060006101000a81548173ffffffffffffffffffffffffffffffffffffffff021916908373ffffffffffffffffffffffffffffffffffffffff160217905550612ac6600460008473ffffffffffffffffffffffffffffffffffffffff1673ffffffffffffffffffffffffffffffffffffffff1681526020019081526020016000206132c8565b808273ffffffffffffffffffffffffffffffffffffffff168473ffffffffffffffffffffffffffffffffffffffff167fddf252ad1be2c89b69c2b068fc378daa952ba7f163c4a11628f55a4df523b3ef60405160405180910390a4505050565b6000612b7e6001600660008673ffffffffffffffffffffffffffffffffffffffff1673ffffffffffffffffffffffffffffffffffffffff168152602001908152602001600020805490506132de90919063ffffffff16565b90506000600760008481526020019081526020016000205490508181141515612c71576000600660008673ffffffffffffffffffffffffffffffffffffffff1673ffffffffffffffffffffffffffffffffffffffff16815260200190815260200160002083815481101515612bef57fe5b9060005260206000200154905080600660008773ffffffffffffffffffffffffffffffffffffffff1673ffffffffffffffffffffffffffffffffffffffff16815260200190815260200160002083815481101515612c4957fe5b9060005260206000200181905550816007600083815260200190815260200160002081905550505b600660008573ffffffffffffffffffffffffffffffffffffffff1673ffffffffffffffffffffffffffffffffffffffff168152602001908152602001600020805480919060019003612cc391906138b5565b5050505050565b600660008373ffffffffffffffffffffffffffffffffffffffff1673ffffffffffffffffffffffffffffffffffffffff168152602001908152602001600020805490506007600083815260200190815260200160002081905550600660008373ffffffffffffffffffffffffffffffffffffffff1673ffffffffffffffffffffffffffffffffffffffff1681526020019081526020016000208190806001815401808255809150509060018203906000526020600020016000909192909190915055505050565b612d9a81612801565b151515612e0f576040517f08c379a00000000000000000000000000000000000000000000000000000000081526004018080602001828103825260148152602001807f546f6b656e20616c72656164792065786973747300000000000000000000000081525060200191505060405180910390fd5b600073ffffffffffffffffffffffffffffffffffffffff168273ffffffffffffffffffffffffffffffffffffffff1614151515612eb4576040517f08c379a000000000000000000000000000000000000000000000000000000000815260040180806020018281038252600f8152602001807f496e76616c69642061646472657373000000000000000000000000000000000081525060200191505060405180910390fd5b816002600083815260200190815260200160002060006101000a81548173ffffffffffffffffffffffffffffffffffffffff021916908373ffffffffffffffffffffffffffffffffffffffff160217905550612f4d600460008473ffffffffffffffffffffffffffffffffffffffff1673ffffffffffffffffffffffffffffffffffffffff1681526020019081526020016000206132c8565b808273ffffffffffffffffffffffffffffffffffffffff16600073ffffffffffffffffffffffffffffffffffffffff167fddf252ad1be2c89b69c2b068fc378daa952ba7f163c4a11628f55a4df523b3ef60405160405180910390a45050565b6008805490506009600083815260200190815260200160002081905550600881908060018154018082558091505090600182039060005260206000200160009091929091909150555050565b60606000821415613041576040805190810160405280600181526020017f3000000000000000000000000000000000000000000000000000000000000000815250905061314d565b600082905060005b60008214151561306f578080600101915050600a8281151561306757fe5b049150613049565b6060816040519080825280601f01601f1916602001820160405280156130a45781602001600182028038833980820191505090505b50905060006001830390505b60008614151561314557600a868115156130c657fe5b066030017f01000000000000000000000000000000000000000000000000000000000000000282828060019003935081518110151561310157fe5b9060200101907effffffffffffffffffffffffffffffffffffffffffffffffffffffffffffff1916908160001a905350600a8681151561313d57fe5b0495506130b0565b819450505050505b919050565b60606131918383602060405190810160405280600081525060206040519081016040528060008152506020604051908101604052806000815250613328565b905092915050565b60008060007fc5d2460186f7233c927e7db2dcc703c0e500b653ca82273b7bfad8045d85a4706001029050833f91508082141580156131dc575060006001028214155b92505050919050565b600073ffffffffffffffffffffffffffffffffffffffff166003600083815260200190815260200160002060009054906101000a900473ffffffffffffffffffffffffffffffffffffffff1673ffffffffffffffffffffffffffffffffffffffff161415156132a25760006003600083815260200190815260200160002060006101000a81548173ffffffffffffffffffffffffffffffffffffffff021916908373ffffffffffffffffffffffffffffffffffffffff1602179055505b50565b6132bd600182600001546132de90919063ffffffff16565b816000018190555050565b6001816000016000828254019250508190555050565b600061332083836040805190810160405280601e81526020017f536166654d6174683a207375627472616374696f6e206f766572666c6f770000815250613743565b905092915050565b6060808690506060869050606086905060608690506060869050606081518351855187518951010101016040519080825280601f01601f1916602001820160405280156133845781602001600182028038833980820191505090505b509050606081905060008090506000809050600090505b885181101561344e5788818151811015156133b257fe5b9060200101517f010000000000000000000000000000000000000000000000000000000000000090047f010000000000000000000000000000000000000000000000000000000000000002838380600101945081518110151561341157fe5b9060200101907effffffffffffffffffffffffffffffffffffffffffffffffffffffffffffff1916908160001a905350808060010191505061339b565b600090505b875181101561350657878181518110151561346a57fe5b9060200101517f010000000000000000000000000000000000000000000000000000000000000090047f01000000000000000000000000000000000000000000000000000000000000000283838060010194508151811015156134c957fe5b9060200101907effffffffffffffffffffffffffffffffffffffffffffffffffffffffffffff1916908160001a9053508080600101915050613453565b600090505b86518110156135be57868181518110151561352257fe5b9060200101517f010000000000000000000000000000000000000000000000000000000000000090047f010000000000000000000000000000000000000000000000000000000000000002838380600101945081518110151561358157fe5b9060200101907effffffffffffffffffffffffffffffffffffffffffffffffffffffffffffff1916908160001a905350808060010191505061350b565b600090505b85518110156136765785818151811015156135da57fe5b9060200101517f010000000000000000000000000000000000000000000000000000000000000090047f010000000000000000000000000000000000000000000000000000000000000002838380600101945081518110151561363957fe5b9060200101907effffffffffffffffffffffffffffffffffffffffffffffffffffffffffffff1916908160001a90535080806001019150506135c3565b600090505b845181101561372e57848181518110151561369257fe5b9060200101517f010000000000000000000000000000000000000000000000000000000000000090047f01000000000000000000000000000000000000000000000000000000000000000283838060010194508151811015156136f157fe5b9060200101907effffffffffffffffffffffffffffffffffffffffffffffffffffffffffffff1916908160001a905350808060010191505061367b565b82995050505050505050505095945050505050565b600083831115829015156137f2576040517f08c379a00000000000000000000000000000000000000000000000000000000081526004018080602001828103825283818151815260200191508051906020019080838360005b838110156137b757808201518184015260208101905061379c565b50505050905090810190601f1680156137e45780820380516001836020036101000a031916815260200191505b509250505060405180910390fd5b5060008385039050809150509392505050565b604080519081016040528060008152602001600073ffffffffffffffffffffffffffffffffffffffff1681525090565b828054600181600116156101000203166002900490600052602060002090601f016020900481019282601f1061387657805160ff19168380011785556138a4565b828001600101855582156138a4579182015b828111156138a3578251825591602001919060010190613888565b5b5090506138b191906138e1565b5090565b8154818355818111156138dc578183600052602060002091820191016138db91906138e1565b5b505050565b61390391905b808211156138ff5760008160009055506001016138e7565b5090565b9056fe676976656e2061646472657373206d757374206e6f74206265206f776e6572206f6620746f6b656e496453656e6465722061646472657373206e6f74206f776e6572206f6620746f6b656ea165627a7a723058206b1031a98b23c8f43f2c26400e86f2e40b30378710dbcb6182882cee0a6d5f8b0029608060405234801561001057600080fd5b50611180806100206000396000f3fe608060405234801561001057600080fd5b5060043610610048576000357c010000000000000000000000000000000000000000000000000000000090048063621e9ec01461004d575b600080fd5b6101ac600480360361014081101561006457600080fd5b8101908080604001906002806020026040519081016040528092919082600260200280828437600081840152601f19601f82011690508083019250505050505091929192908060800190600280602002604051908101604052809291906000905b82821015610119578382604002016002806020026040519081016040528092919082600260200280828437600081840152601f19601f820116905080830192505050505050815260200190600101906100c5565b50505050919291929080604001906002806020026040519081016040528092919082600260200280828437600081840152601f19601f820116905080830192505050505050919291929080604001906002806020026040519081016040528092919082600260200280828437600081840152601f19601f82011690508083019250505050505091929192905050506101c6565b604051808215151515815260200191505060405180910390f35b60006101d0610fce565b60408051908101604052808760006002811015156101ea57fe5b6020020151815260200187600160028110151561020357fe5b602002015181525081600001819052506040805190810160405280604080519081016040528088600060028110151561023857fe5b6020020151600060028110151561024b57fe5b6020020151815260200188600060028110151561026457fe5b6020020151600160028110151561027757fe5b60200201518152508152602001604080519081016040528088600160028110151561029e57fe5b602002015160006002811015156102b157fe5b602002015181526020018860016002811015156102ca57fe5b602002015160016002811015156102dd57fe5b60200201518152508152508160200181905250604080519081016040528085600060028110151561030a57fe5b6020020151815260200185600160028110151561032357fe5b60200201518152508160400181905250606060026040519080825280602002602001820160405280156103655781602001602082028038833980820191505090505b50905060008090505b60028110156103b357848160028110151561038557fe5b6020020151828281518110151561039857fe5b9060200190602002018181525050808060010191505061036e565b5060006103c0828461042b565b141561041c577f3f3cfdb26fb5f9f1786ab4f1a1f9cd4c0b5e726cbdfc26e495261731aad44e396040518080602001828103825260228152602001806111336022913960400191505060405180910390a1600192505050610423565b6000925050505b949350505050565b6000610435611003565b61043d610568565b9050806080015151600185510114151561045657600080fd5b61045e61104c565b6040805190810160405280600081526020016000815250905060008090505b85518110156104dd576104ce826104c98560800151600185018151811015156104a257fe5b9060200190602002015189858151811015156104ba57fe5b906020019060200201516109c2565b610a5e565b9150808060010191505061047d565b5061050481836080015160008151811015156104f557fe5b90602001906020020151610a5e565b905061054a8460000151856020015161051c84610b1b565b856040015161052e8960400151610b1b565b87606001516105408960000151610b1b565b8960200151610bb7565b151561055b57600192505050610562565b6000925050505b92915050565b610570611003565b60408051908101604052807f1ed81715f4fcc45ae7025b681eba2f97d20a1286520ce37716c0159736e16c2181526020017f0bffe02dd7ec06a8f6b067afb9d7414511eb9cb74206c559af43a769ce0a5ad88152508160000181905250604080519081016040528060408051908101604052807f1483cd49988479a502e3f19175c36bd32cc257648858abf46f2dbe44721a517f81526020017f1e159e7f426d4f883ca52396d676248a0190bb6d1cf384c5d9ac9e2b64e9e72c815250815260200160408051908101604052807f181499c08190e6b1798adc80f985e4303e8877cb4533e433773d2d4c75dccfc281526020017f1a34fd908966335e8061f53603ec7cdba68b3966ece78883e0e25a9d610c072e8152508152508160200181905250604080519081016040528060408051908101604052807f03ddbf955a8b1f964d347705b2dac05f5dc1f2f9579609f1be9cdba5f5c94b2781526020017f2e4ee8cc6918ff3a1f20880486551d5faa4e66f558eac14f9929e47bf7078976815250815260200160408051908101604052807f2cc5a47ab5f106be1bdb92c65ebccda3b8032f0ad6d39be1c477bd6b06a3594d81526020017f0bdad48c413967c25f8420e4e71b34d55eef38b24038681c6b714afc2fe64e4c8152508152508160400181905250604080519081016040528060408051908101604052807f08036e96dca2980fccc3fc8e67d66373ee801abfb0f3b509a89c01622b686d5181526020017f1e0932f834c17d18b18537b32310a937ca7561a3de4a1cde823dbd60148a1fb0815250815260200160408051908101604052807f19647e1e9ce41a04e58f8a49848560a257770ad40f4aa8850b2331102d0e940581526020017f22566d8495f1245a3ee6f3a09388d0f7394060d07e3f8efa75121836450f664a8152508152508160600181905250600360405190808252806020026020018201604052801561085757816020015b610844611066565b81526020019060019003908161083c5790505b50816080018190525060408051908101604052807f07518e401846a0feac304c5f8f1c9310194e19b379b6a8d24c75385ddfbbcbc881526020017f19fe836659c349e484edb7f00b9af541b479a2e9ec9b667e3fb99fb15e148f24815250816080015160008151811015156108c857fe5b9060200190602002018190525060408051908101604052807f23f4c8a4fca6b75f307353891b802b27da6a38bb292baf960050ff0e90154ed281526020017f01ae9c4a5d84ec86d4d571dea46f2b89a5e7468109b2422b87984bd90aa162698152508160800151600181518110151561093d57fe5b9060200190602002018190525060408051908101604052807f1341f075538aed33cabe5798ec6d9a4cf784e6dd8b495b8f4ed8cc18b7c9804b81526020017f1fdf02ebaeb2ae4ffcecd0f446250bd4a1a99b04fb0efbe419de08d1a7f8243c815250816080015160028151811015156109b257fe5b9060200190602002018190525090565b6109ca61104c565b6109d2611080565b83600001518160006003811015156109e657fe5b6020020181815250508360200151816001600381101515610a0357fe5b60200201818152505082816002600381101515610a1c57fe5b6020020181815250506000606083608084600060076107d05a03f190508060008114610a4757610a49565bfe5b50801515610a5657600080fd5b505092915050565b610a6661104c565b610a6e6110a3565b8360000151816000600481101515610a8257fe5b6020020181815250508360200151816001600481101515610a9f57fe5b6020020181815250508260000151816002600481101515610abc57fe5b6020020181815250508260200151816003600481101515610ad957fe5b602002018181525050600060608360c084600060066107d05a03f190508060008114610b0457610b06565bfe5b50801515610b1357600080fd5b505092915050565b610b2361104c565b60007f30644e72e131a029b85045b68181585d97816a916871ca8d3c208c16d87cfd47905060008360000151148015610b60575060008360200151145b15610b84576040805190810160405280600081526020016000815250915050610bb2565b604080519081016040528084600001518152602001828560200151811515610ba857fe5b0683038152509150505b919050565b600060606004604051908082528060200260200182016040528015610bf657816020015b610be3611066565b815260200190600190039081610bdb5790505b50905060606004604051908082528060200260200182016040528015610c3657816020015b610c236110c6565b815260200190600190039081610c1b5790505b5090508a826000815181101515610c4957fe5b9060200190602002018190525088826001815181101515610c6657fe5b9060200190602002018190525086826002815181101515610c8357fe5b9060200190602002018190525084826003815181101515610ca057fe5b9060200190602002018190525089816000815181101515610cbd57fe5b9060200190602002018190525087816001815181101515610cda57fe5b9060200190602002018190525085816002815181101515610cf757fe5b9060200190602002018190525083816003815181101515610d1457fe5b90602001906020020181905250610d2b8282610d3b565b9250505098975050505050505050565b600081518351141515610d4d57600080fd5b6000835190506000600682029050606081604051908082528060200260200182016040528015610d8c5781602001602082028038833980820191505090505b50905060008090505b83811015610f6a578681815181101515610dab57fe5b90602001906020020151600001518260006006840201815181101515610dcd57fe5b90602001906020020181815250508681815181101515610de957fe5b90602001906020020151602001518260016006840201815181101515610e0b57fe5b90602001906020020181815250508581815181101515610e2757fe5b90602001906020020151600001516000600281101515610e4357fe5b60200201518260026006840201815181101515610e5c57fe5b90602001906020020181815250508581815181101515610e7857fe5b90602001906020020151600001516001600281101515610e9457fe5b60200201518260036006840201815181101515610ead57fe5b90602001906020020181815250508581815181101515610ec957fe5b90602001906020020151602001516000600281101515610ee557fe5b60200201518260046006840201815181101515610efe57fe5b90602001906020020181815250508581815181101515610f1a57fe5b90602001906020020151602001516001600281101515610f3657fe5b60200201518260056006840201815181101515610f4f57fe5b90602001906020020181815250508080600101915050610d95565b50610f736110ed565b60006020826020860260208601600060086107d05a03f190508060008114610f9a57610f9c565bfe5b50801515610fa957600080fd5b6000826000600181101515610fba57fe5b602002015114159550505050505092915050565b61010060405190810160405280610fe3611066565b8152602001610ff06110c6565b8152602001610ffd611066565b81525090565b6101e060405190810160405280611018611066565b81526020016110256110c6565b81526020016110326110c6565b815260200161103f6110c6565b8152602001606081525090565b604080519081016040528060008152602001600081525090565b604080519081016040528060008152602001600081525090565b606060405190810160405280600390602082028038833980820191505090505090565b608060405190810160405280600490602082028038833980820191505090505090565b6080604051908101604052806110da611110565b81526020016110e7611110565b81525090565b602060405190810160405280600190602082028038833980820191505090505090565b604080519081016040528060029060208202803883398082019150509050509056fe5472616e73616374696f6e207375636365737366756c6c792076657269666965642ea165627a7a723058209504e617f127fd3286e6514497d8c3dbcf1eaaaba27719cda0dcab981baa7576002968747470733a2f2f73332d75732d776573742d322e616d617a6f6e6177732e636f6d2f756461636974792d626c6f636b636861696e2f63617073746f6e652f",
  "source": "pragma solidity >=0.4.21 <0.6.0;\n\nimport './SquareVerifier.sol';\nimport './ERC721Mintable.sol';\n\n// TODO define a contract call to the zokrates generated solidity contract <Verifier> or <renamedVerifier>\ncontract SolnSquareVerifier is ERC721MintableComplete{\n\n\n\n    Verifier VerifierContract;\n\n    constructor(string memory name, string memory symbol)\n        public\n        ERC721MintableComplete(name, symbol)\n    {\n        VerifierContract = new Verifier();\n    }\n\n// TODO define another contract named SolnSquareVerifier that inherits from your ERC721Mintable class\n\n\n\n// TODO define a solutions struct that can hold an index & an address\n\n struct Solutions {\n        uint256 index;\n        address Address;      \n}\n\n// TODO define an array of the above struct\nSolutions[]  uniqSolutions;\n\n// TODO define a mapping to store unique solutions submitted\nmapping(bytes32 => Solutions) private solutions;\n\n\n// TODO Create an event to emit when a solution is added\nevent SolutionAdded(uint256 index, address Address);\nevent TokenMint(uint256 index, address Address);\n\n// checks if solution already exits\nmodifier checkSolution(uint256 index, address Address) {\n    bytes32 key = keccak256(abi.encodePacked(index, Address));\n    require(solutions[key].Address == address(0), \"Solution already exists\");\n    _;\n}\n\n\n// TODO Create a function to add the solutions to the array and emit the event\n function addSolutions(uint256 index, address Address) public checkSolution(index, Address) {\n        Solutions memory solution = Solutions({index: index, Address: Address});\n        bytes32 key = keccak256(abi.encodePacked(index, Address));\n        solutions[key] = solution;\n        uniqSolutions.push(solution);\n        emit SolutionAdded(index, Address); \n}\n\n\n// TODO Create a function to mint new NFT only after the solution has been verified\n//  - make sure the solution is unique (has not been used before)\n//  - make sure you handle metadata as well as tokenSuplly\nfunction mintNFT(\n        uint256[2] calldata a,\n        uint256[2][2] calldata b,\n        uint256[2] calldata c,\n        uint256[2] calldata inputs,\n        uint256 index,\n        address Address\n    ) external checkSolution(index, Address) {\n        require(\n            VerifierContract.verifyTx(a, b, c, inputs),\n            \"Solution is not verified\"\n        );\n        this.addSolutions(index, Address);\n        super.mint(Address, index);\n        emit TokenMint(index, Address);\n    }\n}\n\n  \n\n\n\n\n\n\n\n\n\n\n\n\n\n\n\n\n\n\n\n\n\n\n\n\n\n\n",
  "sourcePath": "C:\\Users\\hp\\Documents\\udacity-blockchain-projects\\REALPROJECTS\\Blockchain-Capstone-master\\eth-contracts\\contracts\\SolnSquareVerifier.sol",
  "compiler": {
    "name": "solc",
    "version": "0.5.2+commit.1df8f40c.Emscripten.clang"
  },
  "schemaVersion": "3.4.6",
  "updatedAt": "2022-03-18T12:21:03.997Z",
  "devdoc": {
    "methods": {
      "isApprovedForAll(address,address)": {
        "details": "Tells whether an operator is approved by a given owner",
        "params": {
          "operator": "operator address which you want to query the approval of",
          "owner": "owner address which you want to query the approval of"
        },
        "return": "bool whether the given operator is approved by the given owner"
      },
      "setApprovalForAll(address,bool)": {
        "details": "Sets or unsets the approval of a given operator An operator is allowed to transfer all tokens of the sender on their behalf",
        "params": {
          "approved": "representing the status of the approval to be set",
          "to": "operator address to set the approval"
        }
      },
      "supportsInterface(bytes4)": {
        "details": "implement supportsInterface(bytes4) using a lookup table"
      },
      "tokenByIndex(uint256)": {
        "details": "Gets the token ID at a given index of all the tokens in this contract Reverts if the index is greater or equal to the total number of tokens",
        "params": {
          "index": "uint256 representing the index to be accessed of the tokens list"
        },
        "return": "uint256 token ID at the given index of the tokens list"
      },
      "tokenOfOwnerByIndex(address,uint256)": {
        "details": "Gets the token ID at a given index of the tokens list of the requested owner",
        "params": {
          "index": "uint256 representing the index to be accessed of the requested tokens list",
          "owner": "address owning the tokens list to be accessed"
        },
        "return": "uint256 token ID at the given index of the tokens list owned by the requested address"
      },
      "totalSupply()": {
        "details": "Gets the total amount of tokens stored by the contract",
        "return": "uint256 representing the total amount of tokens"
      }
    }
  },
  "userdoc": {
    "methods": {}
  }
}